:10000000000018308A000028FF00030E8301A100C1
:100010000A08A0008A010408A2007708A300780853
:10002000A4007908A5007A08A6007B08A70083131E
:1000300083128C308400801E1F288C1A38288C3044
:100040008400801C25288C183B2822088400230863
:10005000F7002408F8002508F9002608FA00270808
:10006000FB0020088A00210E8300FF0E7F0E09008E
:100070008A110A123B2D8A110A126C2D0A108A105D
:100080000A118207203420342034203420342034D4
:1000900020342034203420342034203420342034C0
:1000A00020342034203420342034203400340A100A
:1000B0008A100A1182075B3445344434493454347D
:1000C0005D3420343034303430343A3430342E34EB
:1000D00030343034303465342B3430342034003410
:1000E0000A108A100A1182070034073400340834D9
:1000F0000034093400340B3400340D3400340E3431
:1001000000340F3400341134003412340A108A10D1
:100110000A11820739343A3434343A3439343034B9
:1001200035343A3430342E3430343034303465346D
:100130002D34303400340A108A100A118207393401
:100140003A3434343A343934303435343A3431345E
:100150002E3430343034303465342D34303400347F
:100160000A108A100A11820739343A3434343A3486
:100170003934303435343A3432342E343034303447
:10018000303465342D34303400340A108A100A11AA
:10019000820739343A3434343A34393430343534EB
:1001A0003A3433342E3430343034303465342D34F2
:1001B000303400340A108A100A11820739343A3474
:1001C00034343A343934303431343A3430342E34EF
:1001D00030343034303465342D34303400340A1047
:1001E0008A100A11F63E03188A0A820039343A341A
:1001F00034343A343934303432343A3430342E34BE
:1002000030343034303465342D34303400340A1412
:100210008A100A11820739343A3434343A34393482
:10022000303432343A3431342E34303430343034A3
:1002300065342D34303400340A148A100A118207D0
:1002400039343A3434343A343934303432343A3458
:1002500032342E3430343034303465342D3430344C
:1002600000340A148A100A11820739343A343434BB
:100270003A343934303432343A3433342E3430343E
:100280003034303465342D34303400340A148A105C
:100290000A11820739343A3434343A343934303438
:1002A00032343A3434342E343034303430346534EB
:1002B0002D34303400340A148A100A118207203495
:1002C00020342D342D342D34203420342034003487
:1002D0000A148A100A11820720342D3420344D3438
:1002E000413449344E3420344D3445344E34553441
:1002F00020342D3420342034203432342F3432341E
:1003000000340A148A100A1182072034443441341C
:1003100054344534203426342034543449344D3454
:10032000453420345334453454342034203400349C
:100330000A148A100A118207203452344534433497
:100340004F3452344434203443344C3445344134F3
:100350005234203441344C344C34203400340A14A8
:100360008A100A11820720345334593453345434D8
:1003700045344D34203449344E34493454342034D7
:100380002034203420342034203400340A148A10DD
:100390000A118207203450344F34533449344F34D7
:1003A0004E342034563441344C34553445342034A2
:1003B000543445345334543400340A148A100A1126
:1003C000820720342D3420344D34413449344E34A6
:1003D00020344D3445344E34553420342D342034BB
:1003E0002034203431342F34323400340A148A104B
:1003F0000A11FD3E03188A0A820020344534443431
:100400004934543420344334543452344C3420343A
:1004100044344134543441342034203420340034C2
:100420000A108A140A118207203454345234493491
:10043000503420345234453443344F3452344434ED
:100440002034563449344534573420342034003471
:100450000A108A140A118207203453345934533451
:10046000543445344D3420345234453453344534B7
:1004700054342034203420342034203400340A1002
:100480008A140A1182074E344F34203452346534B2
:1004900063346534693476346534643420344434E8
:1004A00061347434613400340A108A140A118207EA
:1004B000543452344934503420345B3430345D3455
:1004C00000340A108A140A11820739343A34343459
:1004D0003A343934303433343A3430342E343034DE
:1004E0003034303465342B34313400340A108A14FB
:1004F0000A11820739343A3434343A3439343034D6
:1005000033343A3430342E34353430343034653486
:100510002B34313400340A108A140A11820739341A
:100520003A3434343A343934303433343A3430347D
:100530002E3436343034303465342B343134003496
:100540000A108A140A11820739343A3434343A349E
:100550003934303433343A3430342E343434303463
:10056000303465342B34313400340A108A140A11C3
:10057000820720342D3420342034203420340034B9
:100580000A108A140A11820739343A3434343A345E
:100590003934303433343A3430342E343134303426
:1005A000303465342B34313400340A108A140A1183
:1005B0008207203420342034203420342034203466
:1005C00020342034203400340A108A140A1182079F
:1005D0002034543452344934503420344434453473
:1005E0005334433449345034543449344F344E3402
:1005F0002034003400000A148A140A11023E031841
:100600008A0A820020345234453443344F34523401
:100610004434203444344134543445342034203478
:1006200000340A148A140A118207563444344334BD
:100630003D3420342034203420342034203400341D
:100640000A148A140A118207443441345434413460
:100650003D342034203420342034203400340A1433
:100660008A140A11820720345334593453345434D1
:1006700045344D34203452344534533445345434A5
:1006800020344F344B343F342034203400340A14A7
:100690008A140A11820720345934453453342034E3
:1006A0003D342034503452344534533453342034A0
:1006B0005B34523455344E345D3400340A148A1499
:1006C0000A11820739343A3434343A343934303404
:1006D00032343A3435342E343034303430346534B6
:1006E0002D34303400340A148A140A11820753342A
:1006F00059345334543445344D34203449344E3411
:100700004934543420344F344B343F3400340A14C9
:100710008A140A1182075034523445345334533406
:100720002034523455344E3420345234453453340A
:100730004534543400340A148A140A1182070234EE
:1007400003340534063409340A340C340D340F34C0
:100750001034123413340A148A140A1182074434F0
:10076000413454344534203426342034543449340C
:100770004D3445342034533445345434543449349E
:100780004E344734203400340A148A140A11820784
:1007900039343A3434343A343934303436343A34FF
:1007A00030342E3430343034303465342D343034F9
:1007B00000340A148A140A11820739343A34343462
:1007C0003A343934303434343A3430342E3400341A
:1007D0000A148A140A11820739343A3434343A3408
:1007E0003934303434343A3431342E3400340A1449
:1007F0008A140A11FE3E03188A0A820020345234F9
:1008000045344334203443344C3445344134523439
:10081000203441344C344C34213420344F344B3464
:100820003F34203400340A108A100A15820720341D
:100830005934453453342034203420342034203487
:100840004E344F34203420342034203420340034CB
:100850000A108A100A15820739343A3434343A348B
:100860003934303434343A3432342E343034303451
:10087000303465342D34303400340A108A100A15AF
:10088000820720344234413443344B34553450349D
:10089000203452344534533454344F345234453474
:1008A00020344F344B343F3400340A108A100A1578
:1008B0008207203449344E3449345434203452347D
:1008C0004534533454344F345234453420344F3447
:1008D0004B343F342034203400340A108A100A1577
:1008E000820739343A3434343A3439343034373492
:1008F0003A3430342E3430343034303465342D349E
:10090000303400340A108A100A15820739343A3418
:1009100034343A343934303437343A3431342E3490
:1009200030343034303465342D34303400340A10EF
:100930008A100A1582074434493447344934543400
:1009400041344C3420344F345034453452344134E3
:1009500054342034203420342034203420340034E3
:100960000A108A100A1582075B3445347734443400
:100970006F342D34323431345D34203476343234B3
:100980002E34363430342034203420342034203493
:1009900000340A108A100A158207453475346E3403
:1009A000573468346F34203450346F3477346534BE
:1009B0007234203445346C346534633474346934AF
:1009C000633400340A108A100A15820754344534FF
:1009D0004C342034383432342D34353431342D34E1
:1009E0003234363432342D343734353433343234CF
:1009F000203420340034600883166702031C242D41
:100A0000031D0A2D660883125F02031C092D83163D
:100A1000242D83166608FF3CE800FF30E9006708D4
:100A2000031C670FE90283125F0883166807F8004A
:100A30006908FA00831260080318600FFA077A0841
:100A4000F900352D352D8316660883125F02F700F5
:100A50006008FA0083166708031C670FFA0277081C
:100A6000F8007A08F9008312352D00345F08F80089
:100A70006008F900003476088316E7007508E60080
:100A80008312FB2479088316E7007808E600E7085C
:100A9000031D4E2D6608C83C0318532D8312E50133
:100AA0006508E4008316831236257908F600780875
:100AB000F500A030650784001A088000E50A650883
:100AC0001D3C031CE501650864020319E40A8C124D
:100AD0008C128A110A1225286400DF0A0319E00A21
:100AE000FD0A0319FE0A7E08023C0318832DFF3A13
:100AF000031D7E2D7D08E83C0318832DFE01FD01BA
:100B0000AB0A0319AC0A8C108A110A122528E530A9
:100B1000840000080319992D0230F800F701F70B43
:100B20008F2DF80B8E2D9730F700F70B952D800B3E
:100B30008C2D003400000034831688015F08831276
:100B40008800831609108312091083160911831275
:100B50000911831689108312891402308316E50067
:100B60008312872583168910831289100230831619
:100B7000E5008312872583168910831289140034B7
:100B800083168910831289108316091083120910A5
:100B900083160911831209118316880183128801B3
:100BA00083168801383083128800831689108312D7
:100BB00089149A259A258316891083128910143076
:100BC0008316E50083128725831688013830831247
:100BD000880083168910831289149A259A25831612
:100BE00089108312891005308316E500831287254A
:100BF0000C308316DF0083129C2501308316DF0042
:100C000083129C2506308316DF0083129C258030DA
:100C10008316DF0083129C2501308316DF008312C8
:100C20009C25003483169801831298019030831616
:100C300087000C3099000430980098308312980097
:100C400083169816831200340630F700F70B262E11
:100C5000000083168801831288018316091183120C
:100C600009158316891083128914FF3083168800B2
:100C70008312080880398316E400891083128910D2
:100C80008316E408031D2A2E0230E500831287250F
:100C90008316891083128910831609108312091094
:100CA000831609118312091100342426803083161B
:100CB0006307E400880164088312880083168910A2
:100CC00083128914831689108312891000348316C5
:100CD0005E08FC3E03187F2E043E8312A82E831666
:100CE000E1017F2E40308316E1007F2E1430831601
:100CF000E1007F2E54308316E1007F2E8316891089
:100D000083128910831609108312091083160911A2
:100D10008312091183165F086107E200E300831262
:100D200055262426831688016008831288008316BE
:100D300009108312091483168910831289148316EB
:100D40008910831289108316091083120910003448
:100D50000A108A140A1582076F2E722E762E7A2EAA
:100D600083165B08840080080319CC2E5A08133CB4
:100D7000031CCC2E5A08DA0ADC005B08DB0A84006C
:100D80000008DD005908DE005C08DF005D08E000B7
:100D900083126726B02E83168312003483168113C4
:100DA0008601FF30831286000030FC008316870125
:100DB000FF30831287000330831685007F30860062
:100DC0000030880009108910091190308700FC005C
:100DD0001F149F141F159F1183121F1007308316B5
:100DE0009C0005080630F700F70BF42E00001C08E5
:100DF00083120D1383169D010108C739083881003D
:100E00000830F800053883129200FA3083169200F9
:100E10008312910183168C146430E50083128725B8
:100E2000C02583160912FA30E500831287251226A1
:100E300001308316DF0083129C2583168C16C03088
:100E400083128B048316D301D4014A3084005308E3
:100E50008407540883129724800000380319352F23
:100E60008316D40AD30A252F83128316D901DA01F7
:100E70004A30DB008312B0268316D301D4014A30F6
:100E800084005308840754088312B024800000387B
:100E900003194F2F8316D40AD30A3F2F8312013030
:100EA0008316D900DA014A30DB008312B02683169C
:100EB000D301D4014A3084005308840754088312B4
:100EC000C9248000003803196A2F8316D40AD30A74
:100ED0005A2F831202308316D900DA014A30DB0020
:100EE0008312B0268316D301D4014A3084005308FC
:100EF000840754088312E224800000380319852FE8
:100F00008316D40AD30A752F831203308316D900AF
:100F1000DA014A30DB008312B0260D308316D3008D
:100F2000FA30E500831287258316D30B902F0D30FE
:100F3000D300FA30E500831287258316D30B992F4F
:100F400083128A150A16832883168514831285183E
:100F5000AE2F06308316D900F62F8312831606169D
:100F60008312061AB82F08308316D900F62F831281
:100F7000831686168312861AC22F05308316D9006F
:100F8000F62F83128316861483128618CC2F043012
:100F90008316D900F62F83128316861583128619BD
:100FA000D62F02308316D900F62F8312831606152A
:100FB00083120619E02F03308316D900F62F83120F
:100FC0008316061483120618EA2F01308316D900FF
:100FD000F62F83128316051483120518F42F073099
:100FE0008316D900F62F83128316D9015908F80009
:0A0FF000831200348A150A16842AC1
:101000008A11A4278A1578088316D800D8080319EE
:1010100015281430E5008A11831287258A158A1154
:10102000A4278A1578088316D800D80803192B2816
:101030008A118312A4278A15F80803192128831618
:1010400018280A308316E5008A11831287258A152D
:10105000AC01AB0183165808F800831200348316E4
:101060005B08FC3E03184728043E8312572883166A
:10107000DE01472840308316DE00472814308316EF
:10108000DE00472854308316DE00472883165C08AC
:101090005E07DF00E3008A11831255268A15831646
:1010A0005D08DF008A1183129C258A1500340A101E
:1010B0008A100A11820737283A283E284228013030
:1010C0008316D400D500DF008A1183129C258A156F
:1010D0008316D601D7014A30840056088407570882
:1010E0008A118312DD218A158000003803197D28BA
:1010F0008316D70AD60A6B2883128316D901DA0120
:101100004A30DB008A118312B0268A15013083161B
:10111000DE00DF013130E0008A11831267268A1574
:101120008316D601D7014A30840056088407570831
:101130008A118312F6218A15800000380319A52828
:101140008316D70AD60A9328831201308316D90052
:101150000230DA004A30DB008A118312B0268A1589
:1011600002308316DE00DF013230E0008A11831284
:1011700067268A158316D601D7014A30840056089F
:10118000840757088A11831210228A1580000038BC
:101190000319CF288316D70AD60ABD288312023036
:1011A0008316D900DA004A30DB008A118312B02698
:1011B0008A1503308316DE00DF013330E0008A1128
:1011C000831267268A158316D601D7014A30840018
:1011D0005608840757088A11831228228A1580002E
:1011E00000380319F8288316D70AD60AE62883128E
:1011F00003308316D9000230DA004A30DB008A114E
:101200008312B0268A158316D40803196029831225
:10121000002078088316D3005508DB00DC010F306E
:10122000DD0083122F2083165308043C031D26295A
:101230005508023C031822290B308312AA006129A9
:1012400024298316D50A83125E2983165308033C8A
:10125000031D2F295508013C031CD5035F295308A2
:10126000053C031937295308063C031D3D290B3063
:101270008312AA0061295E2983165308023C031DCC
:1012800046298312AA0161295E2983165308073C67
:10129000031D5F29550B512901308312AA005D29D6
:1012A00083165508023C031D5A2902308312AA00F6
:1012B0005D29831604308312AA006129831604294C
:1012C00083128A150A16842A01308316D400D500A9
:1012D000DF008A1183129C258A158316D601D70157
:1012E0004A3084005608840757088A1183126821FF
:1012F0008A1580000038031982298316D70AD60A76
:10130000702983128316D901DA014A30DB008A1171
:101310008312B0268A1501308316DE00DF013430D7
:10132000E0008A11831267268A158316D601D70139
:101330004A3084005608840757088A118312812195
:101340008A15800000380319AA298316D70AD60AFD
:101350009829831201308316D9000230DA004A300E
:10136000DB008A118312B0268A1502308316DE0054
:10137000DF013530E0008A11831267268A15831653
:10138000D601D7014A3084005608840757088A11CD
:10139000831298218A15800000380319D4298316F6
:1013A000D70AD60AC229831202308316D900DA007E
:1013B0004A30DB008A118312B0268A150330831667
:1013C000DE00DF013630E0008A11831267268A15BD
:1013D0008316D601D7014A3084005608840757087F
:1013E0008A118312AF218A15800000380319FD2964
:1013F0008316D70AD60AEB2983128316D601D701A2
:101400004A3084005608840757088A118312C6217F
:101410008A15800000380319122A8316D70AD60AC3
:10142000002A831203308316D9000230DA004A30D2
:10143000DB008A118312B0268A158316D40803199B
:101440006C2A5508DB00DC010F30DD0083122F20F1
:10145000002078088316D3005308043C031D3E2A5D
:101460005508023C03183A2A03308312AA006D2A59
:101470003C2A8316D50A83126A2A83165308033C32
:10148000031D472A5508013C031CD5036B2A53084A
:10149000063C03194F2A5308053C031D552A033007
:1014A0008312AA006D2A6A2A83165308023C031D80
:1014B0005E2A8312AA016D2A6A2A83165308073C02
:1014C000031D6B2A550B682A05308312AA00831668
:1014D00083126D2A83161E2A83128A150A16842AFD
:1014E0003930BA003A30BB003430BC003A30BD006D
:1014F0002E08BE002F08BF003008C0003A30C100DF
:101500003108C2002E30C3003208C4003308C500C1
:101510003408C6006530C7003508C8003608C90061
:1015200083165708483C031D9A2A36308312BC00A4
:101530009D2A831634308312BC0000348316DD01EB
:10154000DE018A11831236258A1579088316E00098
:101550007808DF009818D12ADE08031DD12A5D081B
:10156000013C031CD12A8312A8018B1BA8178B13E3
:1015700083166008E7005F08E6008A118312FB24E7
:101580008A15A81B8B1779088316DE007808DD0002
:101590008A1183129A258A158A119A258A1583162B
:1015A000AA2A5C08831299008A1136258A157908BF
:1015B0008316E0007808DF00DE01DD019818052BB6
:1015C000DE08031D052B5D08013C031C052B83125F
:1015D000A8018B1BA8178B1383166008E7005F0810
:1015E000E6008A118312FB248A15A81B8B17790841
:1015F0008316DE007808DD008A1183129A258A1589
:101600008A119A258A158316DE2A83128A150A12F0
:101610001C2B8316DA0159088400800803191F2B3C
:101620005A08273C031C1F2B5908D90A84000008BC
:10163000DB00DC0083129E2A8316DA0A0B2B83124E
:1016400000348316DA018312650864020319472BFC
:1016500083165A08133C03182F2B8312472B590863
:10166000D90ADB0083126408E40AA03E8400000863
:101670008316DD005B0884005D0880008312640827
:101680001D3C031CE4018316DA0A232B8312831604
:101690005908840080015A08F80083120034013090
:1016A0008316D500DF008A1183129C258A158316C4
:1016B000D701D8014A3084005708840758088A1196
:1016C000831257208A158000003803196C2B83166B
:1016D000D80AD70A5A2B83128316D901DA014A3065
:1016E000DB008A118312B0268A158A1112268A1508
:1016F0008316D4015408083C031C852B2E30540754
:10170000840030308000D40A7A2B2B308312B5004D
:10171000AD0103102D0D8A1170208A158316D80093
:10172000031083122D0D013E8A1170208A15831635
:10173000DA005808DB005A08DC000F30DD008312A5
:101740002F208316D50803199A2D831200207808BC
:101750008316D3000130D600031083122D0D8A1199
:1017600070208A158316D800031083122D0D013EB8
:101770008A1170208A158316DA005808DB005A088F
:10178000DC000F30DD0083122F2083165308063C47
:10179000031DD42B8312AD08031DD12B0830AD00DF
:1017A000D22BAD035B2D83165308073C031D9E2CE3
:1017B0000130D4005408033C031C022C5408D70009
:1017C000D801D9014A3084005808840759088A1181
:1017D00083123E208A15800000380319F42B8316EB
:1017E000D90AD80AE22B831283165708D900DA01E6
:1017F0004A30DB008A118312B0268A150000831656
:10180000D40ADA2B4630D700831270222E30C30060
:101810003030C400C500C6006530C7002B30C8009A
:101820003030C9003130C200E5016508E4003A30CB
:101830008316D9008312092364308316E5008A11C8
:10184000831287258A154A308316D90083122123F3
:1018500078088316D400D4080319392C0230D90033
:10186000DA014A30DB008A118312B0268A15572C20
:101870008316D701D8014A308400570884075808D6
:101880008A1183123F228A158000003803194D2CDB
:101890008316D80AD70A3B2C831201308316D9004D
:1018A000DA014A30DB008A118312B0268A15323001
:1018B000C200E5016508E4003A308316D9008312BE
:1018C000092364308316E5008A11831287258A155F
:1018D0004A308316D9008312212378088316D40056
:1018E000D40803197E2C0330D900DA014A30DB001A
:1018F0008A118312B0268A159C2C8316D701D80131
:101900004A3084005708840758088A1183123F22FE
:101910008A15800000380319922C8316D80AD70A3A
:10192000802C831203308316D900DA014A30DB00A1
:101930008A118312B0268A155B2D83165308083C42
:10194000031DC82C8312E1010130E20048308316E8
:10195000D700831270223A308316D90083120923EC
:1019600032308316E5008A11831287258A154A30A2
:101970008316D9008312212301308316D900DA019E
:101980004A30DB008A118312B0268A155B2D83163C
:101990005308043C031D042D83122D08073C031D2E
:1019A000E42C2E302D07840000082B3C031DDE2C78
:1019B0002E302D0784002D308000E32C2E302D0793
:1019C00084002B308000022D2E302D07840000086B
:1019D000393C0318F12C2E302D078400393080005B
:1019E000022D2E302D0784000008303C031CFE2CF5
:1019F0002E302D07840039308000022D2E302D0727
:101A0000840080035B2D83165308033C031D402D87
:101A100083122D08073C031D202D2E302D07840036
:101A200000082B3C031D1A2D2E302D0784002D306D
:101A300080001F2D2E302D0784002B3080003E2D7E
:101A40002E302D07840000082F3C031C2D2D2E3036
:101A50002D078400303080003E2D2E302D0784006D
:101A60000008383C03183A2D2E302D078400303002
:101A700080003E2D2E302D078400800A5B2D8316BA
:101A80005308053C031D4E2D83122D08083C031DF1
:101A90004B2DAD014C2DAD0A5B2D83165308023C36
:101AA000031D592D03308312AA008316D5019A2DE8
:101AB0005A2DD60183128316560B992D03108312CB
:101AC0002D0D8A1170208A158316D80003108312F9
:101AD0002D0D013E8A1170208A158316DA002E30F2
:101AE00083122D07840000088316DB005808DE00EF
:101AF0005A08DF005B08E0008A11831267268A1506
:101B000003102D0D8A1170208A158316D80003103A
:101B100083122D0D013E8A1170208A158316DA007A
:101B20005808DB005A08DC000F30DD0083122F203C
:101B30008316A22B83128A150A16842A8316D901CA
:101B40005908093C031CAD2D6430E5008A1183124D
:101B500087258A158316D90AA02D831200340130F7
:101B60008316DF008A1183129C258A153030831674
:101B70005707D800D901DA014A3084005908840790
:101B80005A088A11831254228A15800000380319DA
:101B9000CE2D8316DA0AD90ABC2D83123030831673
:101BA00057078312D0008316D901DA014A30DB00CF
:101BB0008A118312B0268A159E25E5016508E40086
:101BC0008316D901DA013A308400590884075A088B
:101BD0008A11831261228A15800000380319F52DBD
:101BE0008316DA0AD90AE32D831283165808831262
:101BF000C2003A308316D900831209239E254A3049
:101C00008316D90083122123F8080319122E831694
:101C1000D9010A30DA004A30DB008A118312B0267B
:101C20008A151C2E8316DE010A30DF002D30E000FD
:101C30008A11831267268A15E5016508E400831678
:101C4000D901DA013A308400590884075A088A1108
:101C5000831276228A15800000380319342E8316E9
:101C6000DA0AD90A222E8312831658088312C20078
:101C70003A308316D900831209239E254A308316F1
:101C8000D90083122123F8080319512E023083163C
:101C9000D900DA014A30DB008A118312B0268A1596
:101CA0005C2E02308316DE000130DF002D30E000B4
:101CB0008A11831267268A15E5016508E4008316F8
:101CC000D901DA013A308400590884075A088A1188
:101CD00083128B228A15800000380319742E831614
:101CE000DA0AD90A622E8312831658088312C200B8
:101CF0003A308316D900831209239E254A30831671
:101D0000D90083122123F8080319912E013083167C
:101D1000D900DA014A30DB008A118312B0268A1515
:101D20009B2E01308316DE00DF002D30E0008A118B
:101D3000831267268A15E5016508E4008316D90138
:101D4000DA013A308400590884075A088A1183124C
:101D5000A0228A15800000380319B32E8316DA0AF0
:101D6000D90AA12E8312831658088312C2003A3072
:101D70008316D900831209239E254A308316D90081
:101D800083122123F8080319D02E03308316D900BB
:101D9000DA014A30DB008A118312B0268A15EF2E51
:101DA0008316D901DA014A308400590884075A0899
:101DB0008A118312B5228A15800000380319E52E96
:101DC0008316DA0AD90AD32E831203308316D90078
:101DD000DA014A30DB008A118312B0268A15E50148
:101DE0006508E4008316D901DA013A308400590805
:101DF00084075A088A118312C0228A15800000388D
:101E00000319072F8316DA0AD90AF52E83128316CF
:101E100058088312C2003A308316D900831209236E
:101E20009E254A308316D90083122123F80803190E
:101E3000252F03308316D9000A30DA004A30DB0040
:101E40008A118312B0268A15302F03308316DE00E4
:101E50000A30DF002D30E0008A11831267268A15D0
:101E6000003401308316DF008A1183129C258A1505
:101E70008316D401D5014A308400540884075508DC
:101E80008A1183122F238A158000003803194D2FE1
:101E90008316D50AD40A3B2F83128316D901DA019F
:101EA0004A30DB008A118312B0268A158316D401CA
:101EB000D5014A3084005408840755088A118312DA
:101EC00047238A158000003803196B2F8316D50A23
:101ED000D40A592F831202308316D9000330DA0056
:101EE0004A30DB008A118312B0268A150020780858
:101EF0008316D300530BA22F0130DF008A11831207
:101F00009C258A15E101E2018316D401D5013A30FE
:101F100084005408840755088A1183125E238A15A9
:101F2000800000380319992F8316D50AD40A872F09
:101F300083123A308316D90083120923AA01AD2FE8
:101F4000AA2F83165308023C031DAB2F03308312C4
:101F5000AA00AD2F83168312762F8A150A16842ABB
:1020000001308316D400D501D600DF000A128312F6
:102010009C250A168316D701D8014A308400570838
:10202000840758080A12831254220A1680000038C6
:1020300003191F288316D80AD70A0D28831283167E
:10204000D901DA014A30DB000A128312B0260A16DF
:102050008316D701D8014A308400570884075808EE
:102060000A128312D5220A168000003803193D286F
:102070008316D80AD70A2B2883128316D9010A306F
:10208000DA004A30DB000A128312B0260A16013049
:102090008316DE00DF013130E0000A12831267266A
:1020A0000A168316D701D8014A30840057088407DE
:1020B00058080A128312E4220A1680000038031915
:1020C00066288316D80AD70A54288312013083164B
:1020D000D9000230DA004A30DB000A128312B0263F
:1020E0000A1602308316DE00DF013230E0000A12E9
:1020F000831267260A168316D701D8014A30840056
:102100005708840758080A128312FA220A16800018
:102110000038031990288316D80AD70A7E2883121C
:1021200002308316D900DA004A30DB000A1283122B
:10213000B0260A168316D701D8014A308400570802
:10214000840758080A12831211230A1680000038E7
:102150000319AF288316D80AD70A9D2883120330A3
:102160008316D900DA014A30DB000A128312B02646
:102170000A168316D701D8014A308400570884070D
:1021800058080A12831220230A1680000038031907
:10219000CE288316D80AD70ABC28831203308316A8
:1021A000D9000A30DA004A30DB000A128312B02666
:1021B0000A168316D7010A128A158312AF250A164A
:1021C0008A118316DB010630DC000F30DD000A12B5
:1021D0008A1583122F200A168A118316D408031930
:1021E00050290A128A15831200200A168A117808CB
:1021F0008316D3005308073C031D08295508D70050
:102200000A128A158312AF250A168A11212983160C
:102210005308023C031D132903308312AA008316BE
:10222000D401502920295308043C031D1929D50342
:1022300020295308033C031D1F29D50A2029D60154
:1022400083128316D51B2A295508093C03182A290D
:10225000D5012E29D51F2E290930D500D6080319FE
:102260004B2930305507D700DE010630DF00570814
:10227000E0000A12831267260A168316DB01063075
:10228000DC000F30DD000A128A1583122F200A1697
:102290008A114E2983160130D6008312ED28831649
:1022A00083128A150A16842A8316D4010130D500B8
:1022B000D60105308312AA0001308316DF000A120E
:1022C00083129C250A168316D801D9014A3084004E
:1022D0005808840759080A128312AB230A16800093
:1022E0000038031978298316D90AD80A6629831277
:1022F0008316D901DA014A30DB000A128312B026B4
:102300000A168316D801D9013A3084005808840788
:1023100059080A128312C4230A16800000380319D0
:1023200096298316D90AD80A842983123A3083164B
:10233000D9000A128A15831209230A168A11E501A7
:102340006508E40064308316E5000A1283128725CD
:102350000A1664308316E5000A12831287250A16CE
:102360004A308316D9000A128A15831221230A16CD
:102370008A1101308316D900DA014A30DB000A12D3
:102380008312B0260A1603308316D900DA014A30C8
:10239000DB000A128312B0260A168316D7015708EB
:1023A0000B3C031CE6292E305707D80057080A12A9
:1023B00083129B230A164A3E840000088316DA0023
:1023C000580884005A088000D70ACF2956080A12F4
:1023D00083129B230A168316D8000330DB005808AB
:1023E000DC000F30DD000A128A1583122F200A1636
:1023F0008A118316D5080319AA2B0130D4000A12BA
:102400008A15831200200A168A1178088316D300D1
:102410005308033C031D112A2E3056078400800AFE
:10242000552B5308043C031D1A2A2E3056078400EE
:102430008003552B5308063C031D202AD603552B39
:102440005308053C031D262AD60A552B5308023C87
:10245000031D302A03308312AA00AB2B562B8316A0
:102460005308083C031DD72AD801D9013A3084000B
:102470005808840759080A128312D9230A168000C3
:1024800000380319482A8316D90AD80A362A831233
:102490002E308316D9004430D80059088400000833
:1024A000DA00580884005A088000800803195B2A63
:1024B000D80AD90A4D2A3A30D9000A128A1583124D
:1024C00009230A168A1132308316E5000A12831294
:1024D00087250A168316D801D9013A308400580896
:1024E000840759080A128312E8230A16800000386C
:1024F00003197F2A8316D90AD80A6D2A8312343029
:102500008316D9004430D800590884000008DA0046
:10251000580884005A08800080080319922AD80AB3
:10252000D90A842A3A30D9000A128A15831209235B
:102530000A168A118316D801D9013A308400580846
:10254000840759080A128312C4230A16800000382F
:102550000319AF2A8316D90AD80A9D2A83123A3062
:102560008316D9000A128A15831209230A168A11C2
:10257000E5016508E40032308316E5000A12831293
:1025800087250A164A308316D9000A128A15831243
:1025900021230A168A1101308316D900DA014A3044
:1025A000DB000A128312B0260A16562B8316530834
:1025B000073C031D542BD801D9013A308400580838
:1025C000840759080A128312C4230A1680000038AF
:1025D0000319EF2A8316D90AD80ADD2A83123A3062
:1025E0008316D9000A128A15831209230A168A1142
:1025F000E5016508E40064308316E5000A128312E1
:1026000087250A1664308316E5000A12831287258F
:102610000A164A308316D9000A128A15831221231A
:102620000A168A1101308316D900DA014A30DB001C
:102630000A128312B0260A1603308316D900DA0173
:102640004A30DB000A128312B0260A168316D7011D
:1026500057080B3C031C3F2B2E305707D800570858
:102660000A1283129B230A164A3E8400000883162E
:10267000DA00580884005A088000D70A282B560828
:102680000A1283129B230A168316D8000330DB003C
:102690005808DC000F30DD000A128A1583122F2043
:1026A0000A168A11562B8316D40183128316D61B61
:1026B0005F2B56080B3C03185F2BD601632BD61FEC
:1026C000632B0B30D6002E30560784000008393CAF
:1026D0000318702B2E3056078400303080007C2B7E
:1026E0002E305607840000082F3C031C7C2B2E3014
:1026F0005607840039308000540BA92B56080A1263
:1027000083129B230A168316D8002E3056078400A6
:102710000008D9000330DE005808DF005908E00047
:102720000A12831267260A16831656080A128312A3
:102730009B230A168316D8000330DB005808DC0000
:102740000F30DD000A128A1583122F200A168A1113
:102750008316FA2983128A150A16842A01308316F1
:10276000D400D501D6014A308400550884075608A4
:102770000A128312F7230A16800000380319C52BAA
:102780008316D60AD50AB32B83128316D901DA0130
:102790004A30DB000A128312B0260A168316D501CE
:1027A000D6014A3084005508840756080A1283125D
:1027B00013240A16800000380319E32B8316D60A67
:1027C000D50AD12B831202308316D9000330DA00E8
:1027D0004A30DB000A128312B0260A168316D40888
:1027E00003194D2C0A128A15831200200A168A1129
:1027F00078088316D300530B432C8312E101E201C6
:1028000001308316DF000A1283129C250A168316F4
:10281000D501D601BE3084005508840756080A1237
:1028200083123E200A168000003803191C2C8316E0
:10283000D60AD50A0A2C83128316D501D6013A305E
:1028400084005508840756080A12831228240A16A1
:10285000800000380319312C8316D60AD50A1F2CA4
:1028600083123A308316D9000A128A15831209237B
:102870000A168A1132308316E5000A128312872560
:102880000A164B2C83165308023C031D4C2C0130B6
:102890008312AA004E2C8316EF2B83128A150A1678
:1028A000842A01308316D400DF000A1283129C258B
:1028B0000A168316D501D6014A30840055088407CC
:1028C00056080A12831273230A168000003803196F
:1028D0006E2C8316D60AD50A5C2C83128316D90176
:1028E000DA014A30DB000A128312B0260A16831678
:1028F000D501D6014A3084005508840756080A12CB
:10290000831287230A168000003803198C2C831643
:10291000D60AD50A7A2C831202308316D9000330E6
:10292000DA004A30DB000A128312B0260A16831638
:10293000D4080319DB2C0A128A15831200200A1608
:102940008A1178088316D300530BD12C0130DF0095
:102950000A1283129C250A16E101E2018316D501B1
:10296000D6013A3084005508840756080A128312AB
:102970005E230A16800000380319C32C8316D60A7A
:10298000D50AB12C83123A308316D9000A128A155F
:10299000831209230A168A110130AA00DC2CD92CD3
:1029A00083165308023C031DDA2C01308312AA005F
:1029B000DC2C8316982C83128A150A16842A831617
:1029C000D4010130D500DF000A1283129C250A16BB
:1029D0000C308316DF000A1283129C250A16831618
:1029E000D5080319D92E0A128A15831200200A1657
:1029F0008A1178088316D30001308312E200E101C6
:102A00004A308316D9000A128A15831221230A1626
:102A10008A1178088316D600D6080319232D560884
:102A2000133C031C132D8312DD0162088316D900A9
:102A3000831262088316DA004A30DB000A1283121E
:102A4000B0260A1683165308073C031D2E2D0330AB
:102A50008312AA008316D501D92ECF2E530B4F2DEA
:102A6000D701D8013A3084005708840758080A1261
:102A7000831286200A16800000380319442D83161D
:102A8000D80AD70A322D83123A308316D9000A1297
:102A90008A15831209230A168A11D02E8316530829
:102AA000023C031D722DD701D8013A30840057082B
:102AB000840758080A1283129B200A1680000038E7
:102AC0000319672D8316D80AD70A552D83123A3079
:102AD0008316D9000A128A15831209230A168A114D
:102AE000D02E83165308033C031D952DD701D80122
:102AF0003A3084005708840758080A128312B0201D
:102B00000A168000003803198A2D8316D80AD70ABE
:102B1000782D83123A308316D9000A128A1583124F
:102B200009230A168A11D02E83165308043C031D6C
:102B3000B82DD701D8013A308400570884075808C7
:102B40000A128312C5200A16800000380319AD2D21
:102B50008316D80AD70A9B2D83123A308316D900E0
:102B60000A128A15831209230A168A11D02E831697
:102B7000D408031DD52D8312E201E1018316D7018C
:102B8000D8013A3084005708840758080A12831283
:102B9000DA200A16800000380319D32D8316D80ACC
:102BA000D70AC12D83126A2E8316540BF22D83127D
:102BB000E2010A30E1008316D701D8013A308400DF
:102BC0005708840758080A128312EF200A1680005B
:102BD00000380319F02D8316D80AD70ADE2D831288
:102BE0006A2E83165408023C031D112E02308312F4
:102BF000E200E1018316D701D8013A30840057087A
:102C0000840758080A12831207210A168000003828
:102C100003190F2E8316D80AD70AFD2D83126A2EA8
:102C200083165408033C031D312E02308312E20048
:102C30000A30E1008316D701D8013A3084005708E2
:102C4000840758080A1283121C210A1680000038D3
:102C500003192F2E8316D80AD70A1D2E83126A2E27
:102C600083165408043C031D502E03308312E200E7
:102C7000E1018316D701D8013A3084005708840750
:102C800058080A12831231210A16800000380319ED
:102C90004E2E8316D80AD70A3C2E83126A2E83162C
:102CA00003308312E2000A30E1008316D701D80115
:102CB0003A3084005708840758080A1283124621C4
:102CC0000A168000003803196A2E8316D80AD70A1C
:102CD000582E8312E5016508E4003A308316D900C6
:102CE0000A128A15831209230A168A1132308316B2
:102CF000E5000A12831287250A164A308316D90086
:102D00000A128A15831221230A168A11780883165B
:102D1000D600D6080319A12E5608093C031C902E94
:102D20008312D40162088316D900831261088316C6
:102D3000DA004A30DB000A128312B0260A16C72EC8
:102D40008316D701D8014A308400570884075808F1
:102D50000A1283125B210A16800000380319B52E6F
:102D60008316D80AD70AA32E83123030831654074D
:102D70008312CA0062088316D90083126108831681
:102D8000DA004A30DB000A128312B0260A168316D4
:102D90005408043C0318CE2ED401CF2ED40A83123B
:102DA00064308316E5000A12831287250A16EF2C79
:0A2DB000831683128A150A16832A7F
:1030000084011F30830583161F149F141F159F1101
:1030100007309C008312A901AE01AF01B001B101DC
:10302000B201B301B401B501B601B701B801B901EC
:10303000CA01CB01CC01CD01CE01CF01D001D1011C
:10304000D201D301D401D501D601D701D801D901CC
:10305000DA01DB01DC01DD01DE01E1010130E2002A
:10306000E301E401E5018316A001A101A201A3018E
:10307000A401A501A601A701A801A901AA01AB010C
:10308000AC01AD01AE01AF01B001B101B201B301BC
:10309000B401B501B601B701B801B901BA01BB016C
:1030A000BC01BD01BE01BF01C001C101C201C3011C
:1030B000C401C501C601C701C801C901CA01CB01CC
:1030C000CC01CD01CE01CF01D001D101D2018312BB
:1030D000E600E700E801E900EA017430EB00723035
:1030E000EC007030ED00EE01EF01F101F201023071
:1030F000F300F401F501F601FF30FC00FD01FE01D3
:103100000A128A11CE2E0A168A150F308316DF0096
:103110000A128A1183129C250A168A15AA01AC0884
:10312000031D96282B083C3C0318B328AC01AB01C7
:1031300064308316E5000A128A11831287250A1665
:103140008A15E5016508E4000A128A11C0250A16ED
:103150008A15AA0164308316E5000A128A118312C7
:1031600087250A168A152A08033C031DBA280A1265
:103170005F280A162A080B3C031DC1280A1264297D
:103180000A162A0BC6280A124F2B0A162A08023CD6
:10319000031DCD288A1100288A152A08043C031D26
:1031A000D4280A12312F0A162A08053C031DDB28F1
:1031B0008A1154298A152A08073C031DE2288A111E
:1031C000AE2B8A152A08083C031DE9288A11512CC8
:1031D0008A152A08093C031D772A01308316D4007A
:1031E000D501D6014A3084005508840756080A12D2
:1031F0008A1183123D240A168A15800000380319AB
:1032000006298316D60AD50AF22883128316D50119
:10321000D6014A3084005508840756080A128A11DC
:10322000831255240A168A158000003803191D29B7
:103230008316D60AD50A092983128316D901DA0121
:103240004A30DB000A128A118312B0260A168A1548
:103250008316D501D6014A308400550884075608E4
:103260000A128A11831213240A168A158000003864
:1032700003193F298316D60AD50A2B298312023057
:103280008316D9000330DA004A30DB000A128A11B3
:103290008312B0260A168A158316D4080319752AD4
:1032A0000A12831200200A1678088316D3005308E6
:1032B000063C031D8D298312670B7129680B712948
:1032C000013067078316D5000230DE005508DF00A5
:1032D0002030E0000A128A11831267260A168A1526
:1032E00087296708023C031D8729680B8729083056
:1032F00067078316D5000230DE005508DF00203056
:10330000E0000A128A11831267260A168A156808D5
:10331000033C031DE70A3A2A83165308053C031DA4
:10332000C3298312670BA729680BA72901306707F8
:103330008316D5000230DE005508DF002030E000A3
:103340000A128A11831267260A168A15BD29670890
:10335000023C031DBD29680BBD2908306707831691
:10336000D5000230DE005508DF002030E0000A12F0
:103370008A11831267260A168A156808033C031D02
:10338000E7033A2A83165308023C031DCD29013076
:103390008312AA00742A3A2A8316530B3B2A02305E
:1033A0008312E600670B3A2A6808033C03193A2A9D
:1033B0000330E8008316D501D601BE3084005508DD
:1033C000840756080A128A1183123E200A168A15AB
:1033D000800000380319F1298316D60AD50ADD29A1
:1033E000831201308316DF000A128A1183129C2592
:1033F0000A168A15E101E2016908033C031D182A37
:103400008316D501D6013A30840055088407560842
:103410000A128A1183126D240A168A158000003858
:103420000319172A8316D60AD50A032A8312332AC8
:103430006908043C031D332A8316D501D6013A30AE
:1034400084005508840756080A128A1183128224C0
:103450000A168A15800000380319332A8316D60A03
:10346000D50A1F2A83123A308316D9000A12831212
:1034700009230A16831683126708023C0318432A9D
:103480000130E700482AE708031D482A0230E70018
:10349000670B5D2A680B5D2A013067078316D5002C
:1034A0000230DE005508DF002A30E0000A128A11DF
:1034B000831267260A168A15732A6708023C031DC1
:1034C000732A680B732A083067078316D500023009
:1034D000DE005508DF002A30E0000A128A1183124C
:1034E00067260A168A154C298316852A83122A080C
:1034F0000A3C031D802A0A128A11FA2F0A168A151D
:10350000AA018A11DF2C8A15831683128F28872A35
:02400E003A373F
:00000001FF
;PIC16F877A
